:100000000C9480000C949F000C949F000C949F0013
:100010000C949F000C949F000C949F000C949F00E4
:100020000C949F000C949F000C949F000C949F00D4
:100030000C949F000C949F000C949F000C949F00C4
:100040000C949F000C949F000C949F000C949F00B4
:100050000C949F000C949F000C949F000C949F00A4
:100060000C949F000C949F000C949F000C949F0094
:100070000C949F000C949F000C949F000C949F0084
:100080000C949F000C949F000C949F000C949F0074
:100090000C949F000C949F000C949F000C949F0064
:1000A0000C949F000C949F000C949F000C949F0054
:1000B0000C949F000C949F000C9414010C949F00CE
:1000C0000C949F000C949F000C949F000C949F0034
:1000D0000C949F000C949F000C949F000C949F0024
:1000E0000C949F000C949F000C949F000C949F0014
:1000F0000C949F000C949F000C949F000C949F0004
:1001000011241FBECFEFCDBFDFE7DEBF10E4A0E0BC
:10011000B0E4EAE9F6E000E00BBF02C007900D9200
:10012000A630B107D9F720E4A6E0B0E401C01D92E3
:10013000A730B207E1F70E9403010C944B030C9423
:100140000000E0E4F4E020812D7F20832081216005
:100150002083BC0180E090E00E94500220E030E06B
:1001600040E851E40E94DE029B01AC0160E074E2D1
:1001700084E79DE40E94AF0120E030E040E05FE3CF
:100180000E9443010E942102E0E2F8E0608771874B
:100190008681806C868308959091240895FFFCCF1A
:1001A0008093220808950F931F93CF93DF938C01C0
:1001B000C0E0D0E007C0F801EC0FFD1F80810E9475
:1001C000CC002196F80101900020E9F73197E01B5F
:1001D000F10BCE17DF0778F38AE00E94CC00DF91A5
:1001E000CF911F910F910895E0E4FAE010A211A2BF
:1001F00080ED97E086A397A38081816080838285CC
:10020000816082870895E0E2F4E0808184608083E9
:1002100080E895E20E94A10078940E94F40080E0BA
:1002200090E40E94D300FBCF1F920F920FB60F9263
:1002300011240BB60F928F939F93EF93FF9390919E
:10024000064081E0892780930640882331F0E0E270
:10025000F4E085818460858305C0E0E2F4E0868176
:1002600084608683E0E4FAE0838581608387FF9180
:10027000EF919F918F910F900BBE0F900FBE0F903B
:100280001F9018955058BB27AA270E945A010C941A
:10029000A4020E94960238F00E949D0220F039F4D8
:1002A0009F3F19F426F40C9493020EF4E095E7FBBB
:1002B0000C948D02E92F0E94B50258F3BA17620719
:1002C00073078407950720F079F4A6F50C94D702FC
:1002D0000EF4E0950B2EBA2FA02D0B01B901900161
:1002E0000C01CA01A0011124FF27591B99F0593FA5
:1002F00050F4503E68F11A16F040A22F232F342FED
:100300004427585FF3CF469537952795A795F0403A
:100310005395C9F77EF41F16BA0B620B730B840B4F
:10032000BAF09150A1F0FF0FBB1F661F771F881F07
:10033000C2F70EC0BA0F621F731F841F48F487955F
:1003400077956795B795F7959E3F08F0B0CF939551
:10035000880F08F09927EE0F9795879508950E94CA
:10036000C3010C94A4020E949D0258F00E949602C0
:1003700040F029F45F3F29F00C948D0251110C9448
:10038000D8020C9493020E94B50268F39923B1F34A
:10039000552391F3951B550BBB27AA2762177307AB
:1003A000840738F09F5F5F4F220F331F441FAA1F3F
:1003B000A9F335D00E2E3AF0E0E832D091505040FB
:1003C000E695001CCAF72BD0FE2F29D0660F771FA9
:1003D000881FBB1F261737074807AB07B0E809F08F
:1003E000BB0B802DBF01FF2793585F4F3AF09E3F14
:1003F000510578F00C948D020C94D8025F3FE4F321
:10040000983ED4F3869577956795B795F7959F5F56
:10041000C9F7880F911D9695879597F90895E1E0A2
:10042000660F771F881FBB1F621773078407BA0701
:1004300020F0621B730B840BBA0BEE1F88F7E0955C
:1004400008950E94BD0288F09F5798F0B92F992710
:10045000B751B0F0E1F0660F771F881F991F1AF0AF
:10046000BA95C9F714C0B13091F00E94D702B1E03B
:1004700008950C94D702672F782F8827B85F39F03A
:10048000B93FCCF3869577956795B395D9F73EF448
:1004900090958095709561957F4F8F4F9F4F0895F0
:1004A000E89409C097FB3EF490958095709561950E
:1004B0007F4F8F4F9F4F9923A9F0F92F96E9BB27C4
:1004C0009395F695879577956795B795F111F8CF40
:1004D000FAF4BB0F11F460FF1BC06F5F7F4F8F4FAB
:1004E0009F4F16C0882311F096E911C0772321F0A1
:1004F0009EE8872F762F05C0662371F096E8862F39
:1005000070E060E02AF09A95660F771F881FDAF78F
:10051000880F9695879597F9089597F99F6780E8D2
:1005200070E060E008959FEF80EC089500240A9445
:100530001616170618060906089500240A941216BE
:100540001306140605060895092E0394000C11F4F1
:10055000882352F0BB0F40F4BF2B11F460FF04C09E
:100560006F5F7F4F8F4F9F4F089557FD9058440FF7
:10057000551F59F05F3F71F04795880F97FB991F02
:1005800061F09F3F79F087950895121613061406BF
:10059000551FF2CF4695F1DF08C01616170618064C
:1005A000991FF1CF86957105610508940895E89427
:1005B000BB2766277727CB0197F908950E94F102A0
:1005C0000C94A4020E94960238F00E949D0220F032
:1005D000952311F00C948D020C94930211240C9429
:1005E000D8020E94B50270F3959FC1F3950F50E0B9
:1005F000551F629FF001729FBB27F00DB11D639FD5
:10060000AA27F00DB11DAA1F649F6627B00DA11D7A
:10061000661F829F2227B00DA11D621F739FB00D20
:10062000A11D621F839FA00D611D221F749F332790
:10063000A00D611D231F849F600D211D822F762F29
:100640006A2F11249F5750409AF0F1F088234AF006
:10065000EE0FFF1FBB1F661F771F881F9150504072
:10066000A9F79E3F510580F00C948D020C94D8029E
:100670005F3FE4F3983ED4F3869577956795B795F9
:10068000F795E7959F5FC1F7FE2B880F911D969513
:0A069000879597F90895F894FFCFBD
:06069A0068656C6C6F0046
:00000001FF
